{
  "contractName": "ImageRegister",
  "abi": [
    {
      "anonymous": false,
      "inputs": [
        {
          "indexed": true,
          "internalType": "address",
          "name": "_owner",
          "type": "address"
        },
        {
          "indexed": false,
          "internalType": "bool",
          "name": "_stop",
          "type": "bool"
        }
      ],
      "name": "LogEmergencyStop",
      "type": "event"
    },
    {
      "anonymous": false,
      "inputs": [
        {
          "indexed": true,
          "internalType": "address",
          "name": "_owner",
          "type": "address"
        },
        {
          "indexed": false,
          "internalType": "string",
          "name": "_ipfsHash",
          "type": "string"
        },
        {
          "indexed": false,
          "internalType": "string",
          "name": "_title",
          "type": "string"
        },
        {
          "indexed": false,
          "internalType": "string",
          "name": "_description",
          "type": "string"
        },
        {
          "indexed": false,
          "internalType": "string",
          "name": "_tags",
          "type": "string"
        },
        {
          "indexed": false,
          "internalType": "uint256",
          "name": "_uploadedOn",
          "type": "uint256"
        }
      ],
      "name": "LogImageUploaded",
      "type": "event"
    },
    {
      "payable": false,
      "stateMutability": "nonpayable",
      "type": "fallback"
    },
    {
      "constant": true,
      "inputs": [
        {
          "internalType": "address",
          "name": "",
          "type": "address"
        },
        {
          "internalType": "uint256",
          "name": "",
          "type": "uint256"
        }
      ],
      "name": "ownerToImages",
      "outputs": [
        {
          "internalType": "string",
          "name": "ipfsHash",
          "type": "string"
        },
        {
          "internalType": "string",
          "name": "title",
          "type": "string"
        },
        {
          "internalType": "string",
          "name": "description",
          "type": "string"
        },
        {
          "internalType": "string",
          "name": "tags",
          "type": "string"
        },
        {
          "internalType": "uint256",
          "name": "uploadedOn",
          "type": "uint256"
        }
      ],
      "payable": false,
      "stateMutability": "view",
      "type": "function"
    },
    {
      "constant": false,
      "inputs": [
        {
          "internalType": "string",
          "name": "_ipfsHash",
          "type": "string"
        },
        {
          "internalType": "string",
          "name": "_title",
          "type": "string"
        },
        {
          "internalType": "string",
          "name": "_description",
          "type": "string"
        },
        {
          "internalType": "string",
          "name": "_tags",
          "type": "string"
        }
      ],
      "name": "uploadImage",
      "outputs": [
        {
          "internalType": "bool",
          "name": "_success",
          "type": "bool"
        }
      ],
      "payable": false,
      "stateMutability": "nonpayable",
      "type": "function"
    },
    {
      "constant": true,
      "inputs": [
        {
          "internalType": "address",
          "name": "_owner",
          "type": "address"
        }
      ],
      "name": "getImageCount",
      "outputs": [
        {
          "internalType": "uint256",
          "name": "",
          "type": "uint256"
        }
      ],
      "payable": false,
      "stateMutability": "view",
      "type": "function"
    },
    {
      "constant": true,
      "inputs": [
        {
          "internalType": "address",
          "name": "_owner",
          "type": "address"
        },
        {
          "internalType": "uint8",
          "name": "_index",
          "type": "uint8"
        }
      ],
      "name": "getImage",
      "outputs": [
        {
          "internalType": "string",
          "name": "_ipfsHash",
          "type": "string"
        },
        {
          "internalType": "string",
          "name": "_title",
          "type": "string"
        },
        {
          "internalType": "string",
          "name": "_description",
          "type": "string"
        },
        {
          "internalType": "string",
          "name": "_tags",
          "type": "string"
        },
        {
          "internalType": "uint256",
          "name": "_uploadedOn",
          "type": "uint256"
        }
      ],
      "payable": false,
      "stateMutability": "view",
      "type": "function"
    }
  ],
  "bytecode": "0x60806040526000600160006101000a81548160ff02191690831515021790555034801561002b57600080fd5b506113248061003b6000396000f3fe608060405234801561001057600080fd5b506004361061004c5760003560e01c8063361fad3b1461004e57806350e25c72146100a6578063ef9588c9146102b8578063fdfc8873146104cd575b005b6100906004803603602081101561006457600080fd5b81019080803573ffffffffffffffffffffffffffffffffffffffff169060200190929190505050610765565b6040518082815260200191505060405180910390f35b6100f2600480360360408110156100bc57600080fd5b81019080803573ffffffffffffffffffffffffffffffffffffffff16906020019092919080359060200190929190505050610804565b604051808060200180602001806020018060200186815260200185810385528a818151815260200191508051906020019080838360005b83811015610144578082015181840152602081019050610129565b50505050905090810190601f1680156101715780820380516001836020036101000a031916815260200191505b50858103845289818151815260200191508051906020019080838360005b838110156101aa57808201518184015260208101905061018f565b50505050905090810190601f1680156101d75780820380516001836020036101000a031916815260200191505b50858103835288818151815260200191508051906020019080838360005b838110156102105780820151818401526020810190506101f5565b50505050905090810190601f16801561023d5780820380516001836020036101000a031916815260200191505b50858103825287818151815260200191508051906020019080838360005b8381101561027657808201518184015260208101905061025b565b50505050905090810190601f1680156102a35780820380516001836020036101000a031916815260200191505b50995050505050505050505060405180910390f35b610307600480360360408110156102ce57600080fd5b81019080803573ffffffffffffffffffffffffffffffffffffffff169060200190929190803560ff169060200190929190505050610ab4565b604051808060200180602001806020018060200186815260200185810385528a818151815260200191508051906020019080838360005b8381101561035957808201518184015260208101905061033e565b50505050905090810190601f1680156103865780820380516001836020036101000a031916815260200191505b50858103845289818151815260200191508051906020019080838360005b838110156103bf5780820151818401526020810190506103a4565b50505050905090810190601f1680156103ec5780820380516001836020036101000a031916815260200191505b50858103835288818151815260200191508051906020019080838360005b8381101561042557808201518184015260208101905061040a565b50505050905090810190601f1680156104525780820380516001836020036101000a031916815260200191505b50858103825287818151815260200191508051906020019080838360005b8381101561048b578082015181840152602081019050610470565b50505050905090810190601f1680156104b85780820380516001836020036101000a031916815260200191505b50995050505050505050505060405180910390f35b61074b600480360360808110156104e357600080fd5b810190808035906020019064010000000081111561050057600080fd5b82018360208201111561051257600080fd5b8035906020019184600183028401116401000000008311171561053457600080fd5b91908080601f016020809104026020016040519081016040528093929190818152602001838380828437600081840152601f19601f8201169050808301925050505050505091929192908035906020019064010000000081111561059757600080fd5b8201836020820111156105a957600080fd5b803590602001918460018302840111640100000000831117156105cb57600080fd5b91908080601f016020809104026020016040519081016040528093929190818152602001838380828437600081840152601f19601f8201169050808301925050505050505091929192908035906020019064010000000081111561062e57600080fd5b82018360208201111561064057600080fd5b8035906020019184600183028401116401000000008311171561066257600080fd5b91908080601f016020809104026020016040519081016040528093929190818152602001838380828437600081840152601f19601f820116905080830192505050505050509192919290803590602001906401000000008111156106c557600080fd5b8201836020820111156106d757600080fd5b803590602001918460018302840111640100000000831117156106f957600080fd5b91908080601f016020809104026020016040519081016040528093929190818152602001838380828437600081840152601f19601f820116905080830192505050505050509192919290505050610e77565b604051808215151515815260200191505060405180910390f35b6000600160009054906101000a900460ff161561078157600080fd5b600073ffffffffffffffffffffffffffffffffffffffff168273ffffffffffffffffffffffffffffffffffffffff1614156107bb57600080fd5b6000808373ffffffffffffffffffffffffffffffffffffffff1673ffffffffffffffffffffffffffffffffffffffff168152602001908152602001600020805490509050919050565b6000602052816000526040600020818154811061081d57fe5b906000526020600020906005020160009150915050806000018054600181600116156101000203166002900480601f0160208091040260200160405190810160405280929190818152602001828054600181600116156101000203166002900480156108ca5780601f1061089f576101008083540402835291602001916108ca565b820191906000526020600020905b8154815290600101906020018083116108ad57829003601f168201915b505050505090806001018054600181600116156101000203166002900480601f0160208091040260200160405190810160405280929190818152602001828054600181600116156101000203166002900480156109685780601f1061093d57610100808354040283529160200191610968565b820191906000526020600020905b81548152906001019060200180831161094b57829003601f168201915b505050505090806002018054600181600116156101000203166002900480601f016020809104026020016040519081016040528092919081815260200182805460018160011615610100020316600290048015610a065780601f106109db57610100808354040283529160200191610a06565b820191906000526020600020905b8154815290600101906020018083116109e957829003601f168201915b505050505090806003018054600181600116156101000203166002900480601f016020809104026020016040519081016040528092919081815260200182805460018160011615610100020316600290048015610aa45780601f10610a7957610100808354040283529160200191610aa4565b820191906000526020600020905b815481529060010190602001808311610a8757829003601f168201915b5050505050908060040154905085565b6060806060806000600160009054906101000a900460ff1615610ad657600080fd5b600073ffffffffffffffffffffffffffffffffffffffff168773ffffffffffffffffffffffffffffffffffffffff161415610b1057600080fd5b60008660ff1610158015610b28575060ff8660ff1611155b610b3157600080fd5b60008060008973ffffffffffffffffffffffffffffffffffffffff1673ffffffffffffffffffffffffffffffffffffffff1681526020019081526020016000208054905011610b7f57600080fd5b60008060008973ffffffffffffffffffffffffffffffffffffffff1673ffffffffffffffffffffffffffffffffffffffff1681526020019081526020016000208760ff1681548110610bcd57fe5b90600052602060002090600502019050806000018160010182600201836003018460040154848054600181600116156101000203166002900480601f016020809104026020016040519081016040528092919081815260200182805460018160011615610100020316600290048015610c875780601f10610c5c57610100808354040283529160200191610c87565b820191906000526020600020905b815481529060010190602001808311610c6a57829003601f168201915b50505050509450838054600181600116156101000203166002900480601f016020809104026020016040519081016040528092919081815260200182805460018160011615610100020316600290048015610d235780601f10610cf857610100808354040283529160200191610d23565b820191906000526020600020905b815481529060010190602001808311610d0657829003601f168201915b50505050509350828054600181600116156101000203166002900480601f016020809104026020016040519081016040528092919081815260200182805460018160011615610100020316600290048015610dbf5780601f10610d9457610100808354040283529160200191610dbf565b820191906000526020600020905b815481529060010190602001808311610da257829003601f168201915b50505050509250818054600181600116156101000203166002900480601f016020809104026020016040519081016040528092919081815260200182805460018160011615610100020316600290048015610e5b5780601f10610e3057610100808354040283529160200191610e5b565b820191906000526020600020905b815481529060010190602001808311610e3e57829003601f168201915b5050505050915095509550955095509550509295509295909350565b6000600160009054906101000a900460ff1615610e9357600080fd5b602e855114610ea157600080fd5b60008451118015610eb55750610100845111155b610ebe57600080fd5b610400835110610ecd57600080fd5b60008251118015610ee15750610100825111155b610eea57600080fd5b6000429050610ef761121b565b6040518060a001604052808881526020018781526020018681526020018581526020018381525090506000803373ffffffffffffffffffffffffffffffffffffffff1673ffffffffffffffffffffffffffffffffffffffff16815260200190815260200160002081908060018154018082558091505090600182039060005260206000209060050201600090919290919091506000820151816000019080519060200190610fa692919061124a565b506020820151816001019080519060200190610fc392919061124a565b506040820151816002019080519060200190610fe092919061124a565b506060820151816003019080519060200190610ffd92919061124a565b50608082015181600401555050503373ffffffffffffffffffffffffffffffffffffffff167f4753b7d7d7b6713cb600756bd11cc8bf932ece70274edfbc01931256caaa63be8888888887604051808060200180602001806020018060200186815260200185810385528a818151815260200191508051906020019080838360005b8381101561109a57808201518184015260208101905061107f565b50505050905090810190601f1680156110c75780820380516001836020036101000a031916815260200191505b50858103845289818151815260200191508051906020019080838360005b838110156111005780820151818401526020810190506110e5565b50505050905090810190601f16801561112d5780820380516001836020036101000a031916815260200191505b50858103835288818151815260200191508051906020019080838360005b8381101561116657808201518184015260208101905061114b565b50505050905090810190601f1680156111935780820380516001836020036101000a031916815260200191505b50858103825287818151815260200191508051906020019080838360005b838110156111cc5780820151818401526020810190506111b1565b50505050905090810190601f1680156111f95780820380516001836020036101000a031916815260200191505b50995050505050505050505060405180910390a2600192505050949350505050565b6040518060a0016040528060608152602001606081526020016060815260200160608152602001600081525090565b828054600181600116156101000203166002900490600052602060002090601f016020900481019282601f1061128b57805160ff19168380011785556112b9565b828001600101855582156112b9579182015b828111156112b857825182559160200191906001019061129d565b5b5090506112c691906112ca565b5090565b6112ec91905b808211156112e85760008160009055506001016112d0565b5090565b9056fea265627a7a7231582054b3697abcb57676259d72fea1dc87f632c59fab5a7a7382ba9ad42d9fa7a61264736f6c634300050c0032",
  "source": "pragma solidity >=0.4.21 <0.6.0;\n\ncontract ImageRegister {\n\n    struct Image {\n        string ipfsHash;        // IPFS hash\n        string title;           // Image title\n        string description;     // Image description\n        string tags;            // Image tags in comma separated format\n        uint256 uploadedOn;     // Uploaded timestamp\n    }\n\n    // Maps owner to their images\n    mapping (address => Image[]) public ownerToImages;\n\n    // Used by Circuit Breaker pattern to switch contract on / off\n    bool private stopped = false;\n\n    event LogImageUploaded(\n        address indexed _owner, \n        string _ipfsHash, \n        string _title, \n        string _description, \n        string _tags,\n        uint256 _uploadedOn\n    );\n\n    event LogEmergencyStop(\n        address indexed _owner, \n        bool _stop\n    );\n\n    modifier stopInEmergency { \n        require(!stopped); \n        _;\n    }\n\n    function() external {}\n\n    function uploadImage(\n        string memory _ipfsHash, \n        string memory _title, \n        string memory _description, \n        string memory _tags\n    ) public stopInEmergency returns (bool _success) {\n            \n        require(bytes(_ipfsHash).length == 46);\n        require(bytes(_title).length > 0 && bytes(_title).length <= 256);\n        require(bytes(_description).length < 1024);\n        require(bytes(_tags).length > 0 && bytes(_tags).length <= 256);\n\n        uint256 uploadedOn = now;\n        Image memory image = Image(\n            _ipfsHash,\n            _title,\n            _description,\n            _tags,\n            uploadedOn\n        );\n\n        ownerToImages[msg.sender].push(image);\n\n        emit LogImageUploaded(\n            msg.sender,\n            _ipfsHash,\n            _title,\n            _description,\n            _tags,\n            uploadedOn\n        );\n\n        _success = true;\n    }\n\n    /** \n    * @notice Returns the number of images associated with the given address\n    * @dev Controlled by circuit breaker\n    * @param _owner The owner address\n    * @return The number of images associated with a given address\n    */\n    function getImageCount(address _owner) \n        public view \n        stopInEmergency \n        returns (uint256) \n    {\n        require(_owner != address(0));\n        return ownerToImages[_owner].length;\n    }\n\n    /** \n    * @notice Returns the image at index in the ownership array\n    * @dev Controlled by circuit breaker\n    * @param _owner The owner address\n    * @param _index The index of the image to return\n    * @return _ipfsHash The IPFS hash\n    * @return _title The image title\n    * @return _description The image description\n    * @return _tags image Then image tags\n    * @return _uploadedOn The uploaded timestamp\n    */ \n    function getImage(address _owner, uint8 _index) \n        public stopInEmergency view returns (\n        string memory _ipfsHash, \n        string memory _title, \n        string memory _description, \n        string memory _tags,\n        uint256 _uploadedOn\n    ) {\n\n        require(_owner != address(0));\n        require(_index >= 0 && _index <= 2**8 - 1);\n        require(ownerToImages[_owner].length > 0);\n\n        Image storage image = ownerToImages[_owner][_index];\n        \n        return (\n            image.ipfsHash, \n            image.title, \n            image.description, \n            image.tags, \n            image.uploadedOn\n        );\n    }\n}\n",
  "sourcePath": "/home/anisa/Desktop/pwa/contracts/ImageRegister.sol",
  "compiler": {
    "name": "solc",
    "version": "0.5.12+commit.7709ece9.Emscripten.clang"
  },
  "schemaVersion": "3.0.18",
  "updatedAt": "2020-01-10T10:19:32.449Z",
  "devdoc": {
    "methods": {
      "getImage(address,uint8)": {
        "details": "Controlled by circuit breaker",
        "params": {
          "_index": "The index of the image to return",
          "_owner": "The owner address"
        },
        "return": "_ipfsHash The IPFS hash_title The image title_description The image description_tags image Then image tags_uploadedOn The uploaded timestamp"
      },
      "getImageCount(address)": {
        "details": "Controlled by circuit breaker",
        "params": {
          "_owner": "The owner address"
        },
        "return": "The number of images associated with a given address"
      }
    }
  },
  "userdoc": {
    "methods": {
      "getImage(address,uint8)": {
        "notice": "Returns the image at index in the ownership array"
      },
      "getImageCount(address)": {
        "notice": "Returns the number of images associated with the given address"
      }
    }
  }
}