{
  "contractName": "PetAdoption",
  "abi": [
    {
      "anonymous": false,
      "inputs": [
        {
          "indexed": true,
          "internalType": "address",
          "name": "_owner",
          "type": "address"
        },
        {
          "indexed": false,
          "internalType": "bool",
          "name": "_stop",
          "type": "bool"
        }
      ],
      "name": "LogEmergencyStop",
      "type": "event"
    },
    {
      "anonymous": false,
      "inputs": [
        {
          "indexed": true,
          "internalType": "address",
          "name": "_owner",
          "type": "address"
        },
        {
          "indexed": false,
          "internalType": "string",
          "name": "_ipfsHash",
          "type": "string"
        },
        {
          "indexed": false,
          "internalType": "string",
          "name": "_name",
          "type": "string"
        },
        {
          "indexed": false,
          "internalType": "string",
          "name": "_location",
          "type": "string"
        },
        {
          "indexed": false,
          "internalType": "string",
          "name": "_breed",
          "type": "string"
        },
        {
          "indexed": false,
          "internalType": "string",
          "name": "_age",
          "type": "string"
        },
        {
          "indexed": false,
          "internalType": "bool",
          "name": "_isAdopted",
          "type": "bool"
        },
        {
          "indexed": false,
          "internalType": "uint256",
          "name": "_uploadedOn",
          "type": "uint256"
        }
      ],
      "name": "LogPetAdopted",
      "type": "event"
    },
    {
      "anonymous": false,
      "inputs": [
        {
          "indexed": true,
          "internalType": "address",
          "name": "_owner",
          "type": "address"
        },
        {
          "indexed": false,
          "internalType": "string",
          "name": "_ipfsHash",
          "type": "string"
        },
        {
          "indexed": false,
          "internalType": "string",
          "name": "_name",
          "type": "string"
        },
        {
          "indexed": false,
          "internalType": "string",
          "name": "_location",
          "type": "string"
        },
        {
          "indexed": false,
          "internalType": "string",
          "name": "_breed",
          "type": "string"
        },
        {
          "indexed": false,
          "internalType": "string",
          "name": "_age",
          "type": "string"
        },
        {
          "indexed": false,
          "internalType": "bool",
          "name": "_isAdopted",
          "type": "bool"
        },
        {
          "indexed": false,
          "internalType": "uint256",
          "name": "_uploadedOn",
          "type": "uint256"
        }
      ],
      "name": "LogPetUploaded",
      "type": "event"
    },
    {
      "payable": false,
      "stateMutability": "nonpayable",
      "type": "fallback"
    },
    {
      "constant": true,
      "inputs": [
        {
          "internalType": "address",
          "name": "",
          "type": "address"
        },
        {
          "internalType": "uint256",
          "name": "",
          "type": "uint256"
        }
      ],
      "name": "pets",
      "outputs": [
        {
          "internalType": "string",
          "name": "ipfsHash",
          "type": "string"
        },
        {
          "internalType": "string",
          "name": "name",
          "type": "string"
        },
        {
          "internalType": "string",
          "name": "location",
          "type": "string"
        },
        {
          "internalType": "string",
          "name": "breed",
          "type": "string"
        },
        {
          "internalType": "string",
          "name": "age",
          "type": "string"
        },
        {
          "internalType": "bool",
          "name": "isAdopted",
          "type": "bool"
        },
        {
          "internalType": "uint256",
          "name": "uploadedOn",
          "type": "uint256"
        }
      ],
      "payable": false,
      "stateMutability": "view",
      "type": "function"
    },
    {
      "constant": false,
      "inputs": [
        {
          "internalType": "string",
          "name": "_ipfsHash",
          "type": "string"
        },
        {
          "internalType": "string",
          "name": "_name",
          "type": "string"
        },
        {
          "internalType": "string",
          "name": "_location",
          "type": "string"
        },
        {
          "internalType": "string",
          "name": "_breed",
          "type": "string"
        },
        {
          "internalType": "string",
          "name": "_age",
          "type": "string"
        }
      ],
      "name": "uploadPet",
      "outputs": [
        {
          "internalType": "bool",
          "name": "_success",
          "type": "bool"
        }
      ],
      "payable": false,
      "stateMutability": "nonpayable",
      "type": "function"
    },
    {
      "constant": true,
      "inputs": [
        {
          "internalType": "address",
          "name": "_owner",
          "type": "address"
        }
      ],
      "name": "getPetCount",
      "outputs": [
        {
          "internalType": "uint256",
          "name": "",
          "type": "uint256"
        }
      ],
      "payable": false,
      "stateMutability": "view",
      "type": "function"
    },
    {
      "constant": true,
      "inputs": [
        {
          "internalType": "address",
          "name": "_owner",
          "type": "address"
        },
        {
          "internalType": "uint8",
          "name": "_index",
          "type": "uint8"
        }
      ],
      "name": "getPet",
      "outputs": [
        {
          "internalType": "string",
          "name": "_ipfsHash",
          "type": "string"
        },
        {
          "internalType": "string",
          "name": "_name",
          "type": "string"
        },
        {
          "internalType": "string",
          "name": "_location",
          "type": "string"
        },
        {
          "internalType": "string",
          "name": "_breed",
          "type": "string"
        },
        {
          "internalType": "string",
          "name": "_age",
          "type": "string"
        },
        {
          "internalType": "bool",
          "name": "isAdopted",
          "type": "bool"
        },
        {
          "internalType": "uint256",
          "name": "_uploadedOn",
          "type": "uint256"
        }
      ],
      "payable": false,
      "stateMutability": "view",
      "type": "function"
    },
    {
      "constant": false,
      "inputs": [
        {
          "internalType": "address",
          "name": "_owner",
          "type": "address"
        },
        {
          "internalType": "uint8",
          "name": "_index",
          "type": "uint8"
        }
      ],
      "name": "adoptPet",
      "outputs": [
        {
          "internalType": "bool",
          "name": "_success",
          "type": "bool"
        }
      ],
      "payable": false,
      "stateMutability": "nonpayable",
      "type": "function"
    }
  ],
  "bytecode": "0x60806040526000600160006101000a81548160ff02191690831515021790555034801561002b57600080fd5b50611e578061003b6000396000f3fe608060405234801561001057600080fd5b50600436106100575760003560e01c80633ee20a891461005957806350dc8dae146102e257806368afbf261461033a5780636e3b0ad0146103a3578063fad557781461062f575b005b6100a56004803603604081101561006f57600080fd5b81019080803573ffffffffffffffffffffffffffffffffffffffff1690602001909291908035906020019092919050505061095e565b6040518080602001806020018060200180602001806020018815151515815260200187815260200186810386528d818151815260200191508051906020019080838360005b838110156101055780820151818401526020810190506100ea565b50505050905090810190601f1680156101325780820380516001836020036101000a031916815260200191505b5086810385528c818151815260200191508051906020019080838360005b8381101561016b578082015181840152602081019050610150565b50505050905090810190601f1680156101985780820380516001836020036101000a031916815260200191505b5086810384528b818151815260200191508051906020019080838360005b838110156101d15780820151818401526020810190506101b6565b50505050905090810190601f1680156101fe5780820380516001836020036101000a031916815260200191505b5086810383528a818151815260200191508051906020019080838360005b8381101561023757808201518184015260208101905061021c565b50505050905090810190601f1680156102645780820380516001836020036101000a031916815260200191505b50868103825289818151815260200191508051906020019080838360005b8381101561029d578082015181840152602081019050610282565b50505050905090810190601f1680156102ca5780820380516001836020036101000a031916815260200191505b509c5050505050505050505050505060405180910390f35b610324600480360360208110156102f857600080fd5b81019080803573ffffffffffffffffffffffffffffffffffffffff169060200190929190505050610cbf565b6040518082815260200191505060405180910390f35b6103896004803603604081101561035057600080fd5b81019080803573ffffffffffffffffffffffffffffffffffffffff169060200190929190803560ff169060200190929190505050610d5e565b604051808215151515815260200191505060405180910390f35b6103f2600480360360408110156103b957600080fd5b81019080803573ffffffffffffffffffffffffffffffffffffffff169060200190929190803560ff169060200190929190505050611442565b6040518080602001806020018060200180602001806020018815151515815260200187815260200186810386528d818151815260200191508051906020019080838360005b83811015610452578082015181840152602081019050610437565b50505050905090810190601f16801561047f5780820380516001836020036101000a031916815260200191505b5086810385528c818151815260200191508051906020019080838360005b838110156104b857808201518184015260208101905061049d565b50505050905090810190601f1680156104e55780820380516001836020036101000a031916815260200191505b5086810384528b818151815260200191508051906020019080838360005b8381101561051e578082015181840152602081019050610503565b50505050905090810190601f16801561054b5780820380516001836020036101000a031916815260200191505b5086810383528a818151815260200191508051906020019080838360005b83811015610584578082015181840152602081019050610569565b50505050905090810190601f1680156105b15780820380516001836020036101000a031916815260200191505b50868103825289818151815260200191508051906020019080838360005b838110156105ea5780820151818401526020810190506105cf565b50505050905090810190601f1680156106175780820380516001836020036101000a031916815260200191505b509c5050505050505050505050505060405180910390f35b610944600480360360a081101561064557600080fd5b810190808035906020019064010000000081111561066257600080fd5b82018360208201111561067457600080fd5b8035906020019184600183028401116401000000008311171561069657600080fd5b91908080601f016020809104026020016040519081016040528093929190818152602001838380828437600081840152601f19601f820116905080830192505050505050509192919290803590602001906401000000008111156106f957600080fd5b82018360208201111561070b57600080fd5b8035906020019184600183028401116401000000008311171561072d57600080fd5b91908080601f016020809104026020016040519081016040528093929190818152602001838380828437600081840152601f19601f8201169050808301925050505050505091929192908035906020019064010000000081111561079057600080fd5b8201836020820111156107a257600080fd5b803590602001918460018302840111640100000000831117156107c457600080fd5b91908080601f016020809104026020016040519081016040528093929190818152602001838380828437600081840152601f19601f8201169050808301925050505050505091929192908035906020019064010000000081111561082757600080fd5b82018360208201111561083957600080fd5b8035906020019184600183028401116401000000008311171561085b57600080fd5b91908080601f016020809104026020016040519081016040528093929190818152602001838380828437600081840152601f19601f820116905080830192505050505050509192919290803590602001906401000000008111156108be57600080fd5b8201836020820111156108d057600080fd5b803590602001918460018302840111640100000000831117156108f257600080fd5b91908080601f016020809104026020016040519081016040528093929190818152602001838380828437600081840152601f19601f8201169050808301925050505050505091929192905050506118c0565b604051808215151515815260200191505060405180910390f35b6000602052816000526040600020818154811061097757fe5b906000526020600020906007020160009150915050806000018054600181600116156101000203166002900480601f016020809104026020016040519081016040528092919081815260200182805460018160011615610100020316600290048015610a245780601f106109f957610100808354040283529160200191610a24565b820191906000526020600020905b815481529060010190602001808311610a0757829003601f168201915b505050505090806001018054600181600116156101000203166002900480601f016020809104026020016040519081016040528092919081815260200182805460018160011615610100020316600290048015610ac25780601f10610a9757610100808354040283529160200191610ac2565b820191906000526020600020905b815481529060010190602001808311610aa557829003601f168201915b505050505090806002018054600181600116156101000203166002900480601f016020809104026020016040519081016040528092919081815260200182805460018160011615610100020316600290048015610b605780601f10610b3557610100808354040283529160200191610b60565b820191906000526020600020905b815481529060010190602001808311610b4357829003601f168201915b505050505090806003018054600181600116156101000203166002900480601f016020809104026020016040519081016040528092919081815260200182805460018160011615610100020316600290048015610bfe5780601f10610bd357610100808354040283529160200191610bfe565b820191906000526020600020905b815481529060010190602001808311610be157829003601f168201915b505050505090806004018054600181600116156101000203166002900480601f016020809104026020016040519081016040528092919081815260200182805460018160011615610100020316600290048015610c9c5780601f10610c7157610100808354040283529160200191610c9c565b820191906000526020600020905b815481529060010190602001808311610c7f57829003601f168201915b5050505050908060050160009054906101000a900460ff16908060060154905087565b6000600160009054906101000a900460ff1615610cdb57600080fd5b600073ffffffffffffffffffffffffffffffffffffffff168273ffffffffffffffffffffffffffffffffffffffff161415610d1557600080fd5b6000808373ffffffffffffffffffffffffffffffffffffffff1673ffffffffffffffffffffffffffffffffffffffff168152602001908152602001600020805490509050919050565b6000600160009054906101000a900460ff1615610d7a57600080fd5b600073ffffffffffffffffffffffffffffffffffffffff168373ffffffffffffffffffffffffffffffffffffffff161415610db457600080fd5b60008260ff1610158015610dcc575060ff8260ff1611155b610dd557600080fd5b60008060008573ffffffffffffffffffffffffffffffffffffffff1673ffffffffffffffffffffffffffffffffffffffff1681526020019081526020016000208054905011610e2357600080fd5b60016000808573ffffffffffffffffffffffffffffffffffffffff1673ffffffffffffffffffffffffffffffffffffffff1681526020019081526020016000208360ff1681548110610e7157fe5b906000526020600020906007020160050160006101000a81548160ff0219169083151502179055508273ffffffffffffffffffffffffffffffffffffffff167fc8ae4e99489c1d808963af0fe0fa7c2f1a98d5d2f281b1168c06c6f56bafe8a66000808673ffffffffffffffffffffffffffffffffffffffff1673ffffffffffffffffffffffffffffffffffffffff1681526020019081526020016000208460ff1681548110610f1d57fe5b90600052602060002090600702016000016000808773ffffffffffffffffffffffffffffffffffffffff1673ffffffffffffffffffffffffffffffffffffffff1681526020019081526020016000208560ff1681548110610f7a57fe5b90600052602060002090600702016001016000808873ffffffffffffffffffffffffffffffffffffffff1673ffffffffffffffffffffffffffffffffffffffff1681526020019081526020016000208660ff1681548110610fd757fe5b90600052602060002090600702016002016000808973ffffffffffffffffffffffffffffffffffffffff1673ffffffffffffffffffffffffffffffffffffffff1681526020019081526020016000208760ff168154811061103457fe5b90600052602060002090600702016003016000808a73ffffffffffffffffffffffffffffffffffffffff1673ffffffffffffffffffffffffffffffffffffffff1681526020019081526020016000208860ff168154811061109157fe5b90600052602060002090600702016004016000808b73ffffffffffffffffffffffffffffffffffffffff1673ffffffffffffffffffffffffffffffffffffffff1681526020019081526020016000208960ff16815481106110ee57fe5b906000526020600020906007020160050160009054906101000a900460ff166000808c73ffffffffffffffffffffffffffffffffffffffff1673ffffffffffffffffffffffffffffffffffffffff1681526020019081526020016000208a60ff168154811061115957fe5b9060005260206000209060070201600601546040518080602001806020018060200180602001806020018815151515815260200187815260200186810386528d8181546001816001161561010002031660029004815260200191508054600181600116156101000203166002900480156112145780601f106111e957610100808354040283529160200191611214565b820191906000526020600020905b8154815290600101906020018083116111f757829003601f168201915b505086810385528c8181546001816001161561010002031660029004815260200191508054600181600116156101000203166002900480156112975780601f1061126c57610100808354040283529160200191611297565b820191906000526020600020905b81548152906001019060200180831161127a57829003601f168201915b505086810384528b81815460018160011615610100020316600290048152602001915080546001816001161561010002031660029004801561131a5780601f106112ef5761010080835404028352916020019161131a565b820191906000526020600020905b8154815290600101906020018083116112fd57829003601f168201915b505086810383528a81815460018160011615610100020316600290048152602001915080546001816001161561010002031660029004801561139d5780601f106113725761010080835404028352916020019161139d565b820191906000526020600020905b81548152906001019060200180831161138057829003601f168201915b50508681038252898181546001816001161561010002031660029004815260200191508054600181600116156101000203166002900480156114205780601f106113f557610100808354040283529160200191611420565b820191906000526020600020905b81548152906001019060200180831161140357829003601f168201915b50509c5050505050505050505050505060405180910390a26001905092915050565b6060806060806060600080600160009054906101000a900460ff161561146757600080fd5b600073ffffffffffffffffffffffffffffffffffffffff168973ffffffffffffffffffffffffffffffffffffffff1614156114a157600080fd5b60008860ff16101580156114b9575060ff8860ff1611155b6114c257600080fd5b60008060008b73ffffffffffffffffffffffffffffffffffffffff1673ffffffffffffffffffffffffffffffffffffffff168152602001908152602001600020805490501161151057600080fd5b60008060008b73ffffffffffffffffffffffffffffffffffffffff1673ffffffffffffffffffffffffffffffffffffffff1681526020019081526020016000208960ff168154811061155e57fe5b9060005260206000209060070201905080600001816001018260020183600301846004018560050160009054906101000a900460ff168660060154868054600181600116156101000203166002900480601f01602080910402602001604051908101604052809291908181526020018280546001816001161561010002031660029004801561162e5780601f106116035761010080835404028352916020019161162e565b820191906000526020600020905b81548152906001019060200180831161161157829003601f168201915b50505050509650858054600181600116156101000203166002900480601f0160208091040260200160405190810160405280929190818152602001828054600181600116156101000203166002900480156116ca5780601f1061169f576101008083540402835291602001916116ca565b820191906000526020600020905b8154815290600101906020018083116116ad57829003601f168201915b50505050509550848054600181600116156101000203166002900480601f0160208091040260200160405190810160405280929190818152602001828054600181600116156101000203166002900480156117665780601f1061173b57610100808354040283529160200191611766565b820191906000526020600020905b81548152906001019060200180831161174957829003601f168201915b50505050509450838054600181600116156101000203166002900480601f0160208091040260200160405190810160405280929190818152602001828054600181600116156101000203166002900480156118025780601f106117d757610100808354040283529160200191611802565b820191906000526020600020905b8154815290600101906020018083116117e557829003601f168201915b50505050509350828054600181600116156101000203166002900480601f01602080910402602001604051908101604052809291908181526020018280546001816001161561010002031660029004801561189e5780601f106118735761010080835404028352916020019161189e565b820191906000526020600020905b81548152906001019060200180831161188157829003601f168201915b5050505050925097509750975097509750975097505092959891949750929550565b6000600160009054906101000a900460ff16156118dc57600080fd5b602e8651146118ea57600080fd5b600085511180156118fe5750610100855111155b61190757600080fd5b61040084511061191657600080fd5b6000835111801561192a5750610100835111155b61193357600080fd5b61040082511061194257600080fd5b60004290506000809050611954611d3e565b6040518060e001604052808a815260200189815260200188815260200187815260200186815260200183151581526020018481525090506000803373ffffffffffffffffffffffffffffffffffffffff1673ffffffffffffffffffffffffffffffffffffffff16815260200190815260200160002081908060018154018082558091505090600182039060005260206000209060070201600090919290919091506000820151816000019080519060200190611a11929190611d7d565b506020820151816001019080519060200190611a2e929190611d7d565b506040820151816002019080519060200190611a4b929190611d7d565b506060820151816003019080519060200190611a68929190611d7d565b506080820151816004019080519060200190611a85929190611d7d565b5060a08201518160050160006101000a81548160ff02191690831515021790555060c082015181600601555050503373ffffffffffffffffffffffffffffffffffffffff167f5ca004f9ac10b232a949729be281a48b115a87e8be325fff9c2806f20811ff618a8a8a8a8a888a6040518080602001806020018060200180602001806020018815151515815260200187815260200186810386528d818151815260200191508051906020019080838360005b83811015611b52578082015181840152602081019050611b37565b50505050905090810190601f168015611b7f5780820380516001836020036101000a031916815260200191505b5086810385528c818151815260200191508051906020019080838360005b83811015611bb8578082015181840152602081019050611b9d565b50505050905090810190601f168015611be55780820380516001836020036101000a031916815260200191505b5086810384528b818151815260200191508051906020019080838360005b83811015611c1e578082015181840152602081019050611c03565b50505050905090810190601f168015611c4b5780820380516001836020036101000a031916815260200191505b5086810383528a818151815260200191508051906020019080838360005b83811015611c84578082015181840152602081019050611c69565b50505050905090810190601f168015611cb15780820380516001836020036101000a031916815260200191505b50868103825289818151815260200191508051906020019080838360005b83811015611cea578082015181840152602081019050611ccf565b50505050905090810190601f168015611d175780820380516001836020036101000a031916815260200191505b509c5050505050505050505050505060405180910390a26001935050505095945050505050565b6040518060e001604052806060815260200160608152602001606081526020016060815260200160608152602001600015158152602001600081525090565b828054600181600116156101000203166002900490600052602060002090601f016020900481019282601f10611dbe57805160ff1916838001178555611dec565b82800160010185558215611dec579182015b82811115611deb578251825591602001919060010190611dd0565b5b509050611df99190611dfd565b5090565b611e1f91905b80821115611e1b576000816000905550600101611e03565b5090565b9056fea265627a7a72315820f610103ab14ca636941b702a297d811e017197eb865d04ecfff388c4acac955864736f6c634300050c0032",
  "source": "pragma solidity >=0.4.21 <0.6.0;\n\ncontract PetAdoption {\n\n    struct Pet {\n        string ipfsHash;        \n        string name;          \n        string location;    \n        string breed;           \n        string age;\n        bool isAdopted;\n        uint256 uploadedOn;     \n    }\n\n    mapping (address => Pet[]) public pets;\n\n    bool private stopped = false;\n\n    event LogPetUploaded(\n        address indexed _owner, \n        string _ipfsHash, \n        string _name, \n        string _location, \n        string _breed,\n        string _age,\n        bool _isAdopted,\n        uint256 _uploadedOn\n    );\n\n     event LogPetAdopted(\n        address indexed _owner, \n        string _ipfsHash, \n        string _name, \n        string _location, \n        string _breed,\n        string _age,\n        bool _isAdopted,\n        uint256 _uploadedOn\n    );\n\n    event LogEmergencyStop(\n        address indexed _owner, \n        bool _stop\n    );\n\n    modifier stopInEmergency { \n        require(!stopped); \n        _;\n    }\n\n    function() external {}\n\n    function uploadPet(\n        string memory _ipfsHash, \n        string memory _name, \n        string memory _location, \n        string memory _breed,\n        string memory _age\n    ) public stopInEmergency returns (bool _success) {\n            \n        require(bytes(_ipfsHash).length == 46);\n        require(bytes(_name).length > 0 && bytes(_name).length <= 256);\n        require(bytes(_location).length < 1024);\n        require(bytes(_breed).length > 0 && bytes(_breed).length <= 256);\n        require(bytes(_age).length < 1024);\n\n        uint256 uploadedOn = now;\n        bool _isAdopted = false;\n        Pet memory pet = Pet(\n            _ipfsHash,\n            _name,\n            _location,\n            _breed,\n            _age,\n            _isAdopted,\n            uploadedOn\n        );\n\n        pets[msg.sender].push(pet);\n\n        emit LogPetUploaded(\n            msg.sender,\n            _ipfsHash,\n            _name,\n            _location,\n            _breed,\n            _age,\n            _isAdopted,\n            uploadedOn\n        );\n\n        _success = true;\n    }\n\n    function getPetCount(address _owner) \n        public view \n        stopInEmergency \n        returns (uint256) \n    {\n        require(_owner != address(0));\n        return pets[_owner].length;\n    }\n\n    function getPet(address _owner, uint8 _index) \n        public stopInEmergency view returns (\n        string memory _ipfsHash, \n        string memory _name, \n        string memory _location, \n        string memory _breed,\n        string memory _age,\n        bool isAdopted,\n        uint256 _uploadedOn\n    ) {\n\n        require(_owner != address(0));\n        require(_index >= 0 && _index <= 2**8 - 1);\n        require(pets[_owner].length > 0);\n\n        Pet storage pet = pets[_owner][_index];\n        \n        return (\n            pet.ipfsHash, \n            pet.name, \n            pet.location, \n            pet.breed, \n            pet.age,\n            pet.isAdopted,\n            pet.uploadedOn\n        );\n    }\n\n    function adoptPet(address _owner, uint8 _index) \n        public stopInEmergency returns (\n        bool _success\n    ) {\n\n        require(_owner != address(0));\n        require(_index >= 0 && _index <= 2**8 - 1);\n        require(pets[_owner].length > 0);\n\n        pets[_owner][_index].isAdopted = true;\n        \n        emit LogPetAdopted(\n            _owner,\n            pets[_owner][_index].ipfsHash,\n            pets[_owner][_index].name,\n            pets[_owner][_index].location,\n            pets[_owner][_index].breed,\n            pets[_owner][_index].age,\n            pets[_owner][_index].isAdopted,\n            pets[_owner][_index].uploadedOn\n        );\n\n        _success = true;\n    }\n}\n",
  "sourcePath": "/home/anisa/Desktop/pwa/contracts/PetAdoption.sol",
  "compiler": {
    "name": "solc",
    "version": "0.5.12+commit.7709ece9.Emscripten.clang"
  },
  "schemaVersion": "3.0.18",
  "updatedAt": "2020-01-10T10:22:32.809Z",
  "networkType": "ethereum",
  "devdoc": {
    "methods": {}
  },
  "userdoc": {
    "methods": {}
  }
}